:060000000A128A11B02F64
:100F600083010A128A11B42F8316031386010130FC
:100F70008800013087002030831203139400831609
:100F800003139401FF3083120313880006104130CD
:100F90009300CA2F8C1DCD2FCE2FCA2F8C11061473
:100FA0000A128A11D8270A128A110A128A110028F5
:100FB0000030F0000030F1007108803AFF009F30EF
:100FC0007F02031DE52F41307002031CE82FE92F3B
:100FD000EB2FFF2FFF2F0130F0070318F10A00302D
:100FE000F1077108803AFF009F307F02031DFA2F3E
:100FF00041307002031CFD2FFE2FEB2FFF2F080046
:00000001FF
