:060000000A128A115A2FBA
:100E64003F3406345B344F3466346D347D34073498
:100E74007F346F3490308B00393083120313880031
:100E84000A128A116C270A128A118B1008007E0834
:100E94008A007F08820049270A128A118000840A86
:100EA40004087D0603190034FF0A0319FE0A4D2FB6
:100EB40083133630FD000730FE003230FF002C3043
:100EC40084000A128A114D270A128A1183010A1218
:100ED4008A11942F0030F0000030F1007108803A3C
:100EE400FF0093307F02031D792F89307002031CA9
:100EF4007C2F7D2F7F2F932F932F0130F007031822
:100F0400F10A0030F1077108803AFF0093307F0244
:100F1400031D8E2F89307002031C912F922F7F2F77
:100F2400932F08000130831603138600880183126F
:100F340003138801203084002C30F2000408F300ED
:100F44000A30F4007208840083130008F500F20AE2
:100F54007308840075088000F30AF40BA42FB22FE1
:100F6400003083120313AA000030AB002B08803A30
:100F7400FF0080307F02031DC12F15302A02031C9D
:100F8400C42FC52FC72FB22FB22F831203132A08E1
:100F9400203E84008313000888000A128A116C27FB
:100FA4000A128A1183120313061CD92FDA2FE52F94
:100FB4000A128A113C270A128A110A128A116C2712
:100FC4000A128A11E52F013083120313AA070318AA
:100FD400AB0A0030AB072B08803AFF0080307F0259
:100FE400031DF62F15302A02031CF92FFA2FC72FE1
:0C0FF400B22FB22FB22F0A128A1100286F
:00000001FF
