:060000000A128A11722FA2
:100EE40083010A128A119E2F0030F0000030F100B5
:100EF4007108803AFF008F307F02031D832FA130D9
:100F04007002031C862F872F892F9D2F9D2F013060
:100F1400F0070318F10A0030F1077108803AFF0066
:100F24008F307F02031D982FA1307002031C9B2F6A
:100F34009C2F892F9D2F08000130831603138600F0
:100F440088018312031388018601061CAA2FAB2F84
:100F5400B32F081488100A128A1176270A128A11EC
:100F6400BB2F081088100A128A1176270A128A11D8
:100F7400BB2F83120313061DC02FC12FC92F0815C1
:100F840088110A128A1176270A128A11D12F0811A0
:100F940088110A128A1176270A128A11D12F831214
:100FA4000313861CD62FD72FDF2F081088140A129C
:100FB4008A1176270A128A11E72F081088100A125C
:100FC4008A1176270A128A11E72F83120313861DCA
:100FD400EC2FED2FF52F081188150A128A117627A8
:100FE4000A128A11FD2F081188110A128A11762714
:0C0FF4000A128A11FD2F0A128A1100282F
:00000001FF
