:060000000A128A11542FC0
:100E68007334613469340034831203130810881012
:100E780008150A128A1170270A128A11831203139D
:100E880008110800831203130814881008150A12A1
:100E98008A1170270A128A11831203130811080095
:100EA8000A128A1134270A128A11F8000A128A11C2
:100EB80035270A128A11F9000A128A1136270A12EE
:100EC8008A11FA000A128A1137270A128A11FB00BE
:100ED80083010A128A11982F0030F0000030F100C7
:100EE8007108803AFF008F307F02031D7D2FA130EB
:100EF8007002031C802F812F832F972F972F01308B
:100F0800F0070318F10A0030F1077108803AFF0072
:100F18008F307F02031D922FA1307002031C952F82
:100F2800962F832F972F08008316031386018801B5
:100F380038300A128A1138270A128A110C300A121C
:100F48008A1138270A128A1110300A128A11382792
:100F58000A128A1106300A128A1138270A128A11CF
:100F680001300A128A1138270A128A1180300A12AF
:100F78008A1138270A128A117B08F5007A08F400CA
:100F88007908F3007808F2000030F6000030F70026
:100F98007708803AFF0080307F02031DD52F053087
:100FA8007602031CD82FD92FDB2FFD2FFD2F7608B3
:100FB800723E840000080A128A1146270A128A1112
:100FC8000A128A1170270A128A110130F6070318CB
:100FD800F70A0030F7077708803AFF0080307F0271
:100FE800031DF82F05307602031CFB2FFC2FDB2F87
:080FF800FD2F0A128A110028E6
:00000001FF
