:060000000A128A11CC2E49
:100D620008340C34043406340234033401340934B4
:100D7200003400347E088A007F088200BB260A12F3
:100D82008A118000840A04087D0603190034FF0AD0
:100D92000319FE0ABF2E83133E30FD000630FE000B
:100DA200B130FF00343084000A128A11BF260A12C1
:100DB2008A1183010A128A11062F0030F0000030D6
:100DC200F1007108803AFF00CE307F02031DEB2E46
:100DD20021307002031CEE2EEF2EF12E052F052F6F
:100DE2000130F0070318F10A0030F1077108803A68
:100DF200FF00CE307F02031D002F21307002031C42
:100E0200032F042FF12E052F0800831603138801E8
:100E1200013086008312031388018601203084008A
:100E22003430F2000408F3000A30F400720884003F
:100E320083130008F500F20A730884007508800025
:100E4200F30AF40B172F061C272F282F5F2F0030D1
:100E5200AE000030AF002F08803AFF0080307F02E2
:100E6200031D352F09302E02031C382F392F3B2F3B
:100E7200632F632F831203132E08203E84008313F3
:100E8200000888000A128A11DE260A128A1101302D
:100E920083120313AE070318AF0A0030AF072F08FF
:100EA200803AFF0080307F02031D592F09302E0245
:100EB200031C5C2F5D2F3B2F632F632F83120313C1
:100EC2008801632F83120313861C682F692FAC2FAE
:100ED2000130AA000030AB002B08B101B1072A088B
:100EE200B001B0073108803AFF0080307F02031D55
:100EF2007C2F09303002031C7F2F802F822FB02FCE
:100F0200B02F831203133008203E8400831300089D
:100F120088000130AA070318AB0A0030AB070A1297
:100F22008A11DE260A128A11013083120313B007D6
:100F32000318B10A0030B1073108803AFF0080304F
:100F42007F02031DA62F09303002031CA92FAA2FEE
:100F5200822FB02FB02F831203138801B02F831278
:100F62000313061DB52FB62FF92F0030AC00003049
:100F7200AD002D08B301B3072C08B201B207330844
:100F8200803AFF0080307F02031DC92F09303202F0
:100F9200031CCC2FCD2FCF2FFD2FFD2F8312031338
:100FA2003208203E84008313000888000130AC0719
:100FB2000318AD0A0030AD070A128A11DE260A12A2
:100FC2008A11013083120313B2070318B30A0030E7
:100FD200B3073308803AFF0080307F02031DF32FEE
:100FE20009303202031CF62FF72FCF2FFD2FFD2FD2
:0E0FF200831203138801FD2F0A128A110028B2
:00000001FF
