:060000000A128A11252DF1
:100A28007E088A007F08820014250A128A11800035
:100A3800840A04087D0603190034FF0A0319FE0A14
:100A4800182D83133430FD000530FE003730FF00C9
:100A5800203084000A128A1118250A128A1183018B
:100A68000A128A11702F3F3406345B344F346634CF
:100A78006D347D3407347F346F343F3406345B344F
:100A88004F3466346D347D3407347F346F3400302E
:100A9800F0000030F1007108803AFF008F307F02CB
:100AA800031D582DA1307002031C5B2D5C2D5E2D9B
:100AB800722D722D0130F0070318F10A0030F1078A
:100AC8007108803AFF008F307F02031D6D2DA13021
:100AD8007002031C702D712D5E2D722D08000310FD
:100AE800003003180130F600F31F7B2D7C2D852D77
:100AF800F209F309F20A0319F30AF6010314F60DD1
:100B0800852DF11F882D892D8F2DF009F109F00A07
:100B18000319F10A8F2D710870040319942D952D6E
:100B2800CB2DF5010314F50DA52D01300310F00DA3
:100B3800F10DFF3E031D9A2D0130F4007408F507EE
:100B4800A52DF11FA82DA92D992DAB2DAB2D710821
:100B58007302031DB12D70087202031CB42DB52D4C
:100B6800BC2D7008F2027108031CF303F302BC2DBC
:100B780001300310F10CF00CFF3E031DBD2D0130B8
:100B8800F502031DC82DC92DAB2DCB2DCB2D760815
:100B9800031DCF2DD52DF209F309F20A0319F30A23
:100BA800D52D7308F101F1077208F001F007DC2D6B
:100BB80008000310003003180130F600F11FE52D7E
:100BC800E62DEF2DF009F109F00A0319F10AF601F3
:100BD8000314F60DEF2DF31FF22DF32DFC2DF20962
:100BE800F309F20A0319F30A0130F4007408F6064F
:100BF8000030F7000030F800710870040319052E62
:100C0800062E442EF5010314F50D162E013003109F
:100C1800F00DF10DFF3E031D0B2E0130F40074089A
:100C2800F507162EF11F192E1A2E0A2E1C2E1C2E11
:100C380001300310F70DF80DFF3E031D1D2E71083E
:100C48007302031D292E70087202031C2C2E2D2EF0
:100C5800352E7008F2027108031CF303F3027714AF
:100C6800352E01300310F10CF00CFF3E031D362E1B
:100C78000130F502031D412E422E1C2E442E442E17
:100C88007608031D482E4E2EF709F809F70A0319AE
:100C9800F80A4E2E7808F101F1077708F001F007FD
:100CA800552E0800343084002030F9000408FA007A
:100CB8000A30FB007908840083130008FC00F90A55
:100CC8007A0884007C088000FA0AFB0B5E2E00304C
:100CD80083120313C0000030C1004108803AFF00AE
:100CE80080307F02031D7A2E0B304002031C7D2EBC
:100CF8007E2E802EE22EE22E0A30F0000030F10027
:100D0800831203134108F301F3074008F201F207C5
:100D18000A128A1173250A128A11710883120313A1
:100D2800BF01BF077008BE01BE07081488103E083F
:100D3800343E84008313000886000A128A114B256A
:100D48000A128A110A30F0000030F10083120313EE
:100D58004108F301F3074008F201F2070A128A1169
:100D6800DD250A128A11710883120313BF01BF0718
:100D78007008BE01BE07081088143E08343E84007F
:100D88008313000886000A128A114B250A128A1159
:100D9800013083120313C0070318C10A0030C107CA
:100DA8004108803AFF0080307F02031DDD2E0B30A2
:100DB8004002031CE02EE12E802EE22E0800343083
:100DC80084002A30F9000408FA000A30FB00790888
:100DD800840083130008FC00F90A7A0884007C0860
:100DE8008000FA0AFB0BEB2E003083120313C000BD
:100DF8000030C1004108803AFF0080307F02031DA7
:100E0800072F06304002031C0A2F0B2F0D2F6F2FC0
:100E18006F2F0A30F0000030F100831203134108ED
:100E2800F301F3074008F201F2070A128A11732549
:100E38000A128A11710883120313BF01BF077008D1
:100E4800BE01BE07081488103E08343E8400831390
:100E5800000886000A128A114B250A128A110A30E4
:100E6800F0000030F100831203134108F301F30787
:100E78004008F201F2070A128A11DD250A128A11C6
:100E8800710883120313BF01BF077008BE01BE07B4
:100E9800081088143E08343E840083130008860036
:100EA8000A128A114B250A128A1101308312031380
:100EB800C0070318C10A0030C1074108803AFF0083
:100EC80080307F02031D6A2F06304002031C6D2FFD
:100ED8006E2F0D2F6F2F08008316031386018801CC
:100EE8008701831203138701033088007B2F20308A
:100EF800831203138800493087000A128A114B2590
:100F08000A128A110A128A1156260A128A11DB302D
:100F1800831203138700203088000A128A114B2598
:100F28000A128A110A128A11E3260A128A11493012
:100F38008312031387000C3088000A128A114B258C
:100F48000A128A110A128A1156260A128A11DB30ED
:100F58008312031387001C3088000A128A114B255C
:100F68000A128A110A128A11E3260A128A114530D6
:100F7800831203138700083088000A128A114B2550
:100F88000A128A110A128A1156260A128A11073081
:100F9800831203138700183088000A128A114B2520
:100FA8000A128A110A128A11E3260A128A112930B2
:100FB800831203138700083088000A128A114B2510
:100FC8000A128A110A128A1156260A128A112B301D
:100FD800831203138700183088000A128A114B25E0
:100FE8000A128A110A128A11E3260A128A117B2F21
:080FF8007B2F0A128A11002868
:00000001FF
