:060000000A128A119D2D79
:100B3A0083010A128A111D2FF2007208831203130D
:100B4A0088000610861006150A128A1112260A1241
:100B5A008A118312031306110A128A1112260A1223
:100B6A008A110800F300730883120313880006141D
:100B7A00861006150A128A1112260A128A1183127F
:100B8A00031306111C300A128A11A1250A128A11AE
:100B9A00080002300A128A11A1250A128A110C30A1
:100BAA000A128A11A1250A128A1106300A128A111A
:100BBA00A1250A128A1101300A128A11A1250A12E4
:100BCA008A1181300A128A11A1250A128A11080093
:100BDA00831203131F15F12D1F19F42DF52DF12D75
:100BEA00F62D1E08F400F5010830FF000310F40D7D
:100BFA00F50DFF0BFB2D831603131E087407F20075
:100C0A000030031801307507F300112E112E0A1255
:100C1A008A1112260A128A1108000030F0000030E8
:100C2A00F1007108803AFF008B307F02031D1F2EEE
:100C3A00B9307002031C222E232E252E392E392E6E
:100C4A000130F0070318F10A0030F1077108803A01
:100C5A00FF008B307F02031D342EB9307002031C53
:100C6A00372E382E252E392E08000310003003188F
:100C7A000130F600F31F422E432E4C2EF209F309DF
:100C8A00F20A0319F30AF6010314F60D4C2EF11FAA
:100C9A004F2E502E562EF009F109F00A0319F10AC7
:100CAA00562E7108700403195B2E5C2E922EF501E4
:100CBA000314F50D6C2E01300310F00DF10DFF3EFB
:100CCA00031D612E0130F4007408F5076C2EF11F24
:100CDA006F2E702E602E722E722E71087302031DF3
:100CEA00782E70087202031C7B2E7C2E832E7008CD
:100CFA00F2027108031CF303F302832E013003107E
:100D0A00F10CF00CFF3E031D842E0130F502031D89
:100D1A008F2E902E722E922E922E7608031D962ECC
:100D2A009C2EF209F309F20A0319F30A9C2E73089E
:100D3A00F101F1077208F001F007A32E0800031071
:100D4A00003003180130F600F11FAC2EAD2EB62E7E
:100D5A00F009F109F00A0319F10AF6010314F60D74
:100D6A00B62EF31FB92EBA2EC32EF209F309F20AD0
:100D7A000319F30A0130F4007408F6060030F7008C
:100D8A000030F800710870040319CC2ECD2E0B2FF9
:100D9A00F5010314F50DDD2E01300310F00DF10DF0
:100DAA00FF3E031DD22E0130F4007408F507DD2E34
:100DBA00F11FE02EE12ED12EE32EE32E0130031097
:100DCA00F70DF80DFF3E031DE42E71087302031D93
:100DDA00F02E70087202031CF32EF42EFC2E7008FB
:100DEA00F2027108031CF303F3027714FC2E01309C
:100DFA000310F10CF00CFF3E031DFD2E0130F5022D
:100E0A00031D082F092FE32E0B2F0B2F7608031D26
:100E1A000F2F152FF709F809F70A0319F80A152FE2
:100E2A007808F101F1077708F001F0071C2F080094
:100E3A008316031388018601013085008312031388
:100E4A008801860181309F00CE30831603139F00EC
:100E5A000A128A11CE250A128A110A128A11ED255E
:100E6A000A128A11730883120313B101B1077208B7
:100E7A00B001B007300888000A30F0000030F100F5
:100E8A003108F301F3073008F201F2070A128A1156
:100E9A00A4260A128A11710883120313AD01AD0741
:100EAA007008AC01AC070A30F0000030F1003108DC
:100EBA00F301F3073008F201F2070A128A113A26FF
:100ECA000A128A11710883120313A101A10770087B
:100EDA00A001A0070A30F0000030F1002D08F3014C
:100EEA00F3072C08F201F2070A128A11A4260A1241
:100EFA008A11710883120313AF01AF077008AE019C
:100F0A00AE070A30F0000030F1002D08F301F307B4
:100F1A002C08F201F2070A128A113A260A128A11D9
:100F2A00710883120313A301A3077008A201A20781
:100F3A000A30F0000030F1002F08F301F3072E0801
:100F4A00F201F2070A128A11A4260A128A117108FA
:100F5A0083120313A501A5077008A401A4070A3088
:100F6A00F0000030F1002F08F301F3072E08F20118
:100F7A00F2070A128A113A260A128A117108831292
:100F8A000313A701A7077008A601A6072408303E85
:100F9A00F9007908A80028080A128A11B7250A1246
:100FAA008A11831203132608303EF9007908A90032
:100FBA0029080A128A11B7250A128A118312031301
:100FCA002208303EF9007908AA002A080A128A1172
:100FDA00B7250A128A11831203132008303EF9003A
:100FEA007908AB002B080A128A11B7250A128A114E
:060FFA000A128A11002812
:00000001FF
