:060000000A128A11A32F71
:100F460083010A128A11A72F831603138601013023
:100F560088007018AF2FB32F831203130614B62F11
:100F66008312031306107108F301F3077008F201E8
:100F7600F2077308803AFF0080307F02031DC52FF9
:100F860006307202031CC82FC92FD92FFD2FFD2F43
:100F9600D92F831203138614E92F83120313061520
:100FA600E92F831203138615E92FE92F7308003AF8
:100FB6000319DE2FE92F7208013A0319CC2F033AE1
:100FC6000319D02F013A0319D42FE92F0130F20764
:100FD6000318F30A0030F3077308803AFF008030E5
:100FE6007F02031DF82F06307202031CFB2FFC2F15
:0A0FF600D92FFD2F0A128A110028DE
:00000001FF
