:060000000A128A11582EBD
:100C8E007E088A007F08820047260A128A11800099
:100C9E00840A04087D0603190034FF0A0319FE0AAC
:100CAE004B2E8313EC30FD000730FE001930FF0091
:100CBE00A03084000A128A114B260A128A1183016F
:100CCE000A128A11652F0030F0000030F100710811
:100CDE00803AFF0083307F02031D772EE9307002C9
:100CEE00031C7A2E7B2E7D2E912E912E0130F00735
:100CFE000318F10A0030F1077108803AFF008330C3
:100D0E007F02031D8C2EE9307002031C8F2E902E55
:100D1E007D2E912E080002300A128A11EB260A123D
:100D2E008A1128300A128A11EB260A128A110C3007
:100D3E000A128A11EB260A128A1106300A128A1139
:100D4E00EB260A128A1110300A128A11EB260A12A9
:100D5E008A1101300A128A11EB260A128A1180308A
:100D6E000A128A11EB260A128A110800F300F030DB
:100D7E007305F2008312031308080F3972048800FA
:100D8E000714871007150A128A116A260A128A1189
:100D9E0083120313071173080F39F2000430031086
:100DAE00F20DFF3E031DD62E08080F39720488007F
:100DBE000714871007150A128A116A260A128A1159
:100DCE008312031307110800F300F0307305F200CD
:100DDE008312031308080F39720488000710871056
:100DEE0007150A128A116A260A128A118312031330
:100DFE00071173080F39F20004300310F20DFF3E95
:100E0E00031D042F08080F3972048800071087107D
:100E1E0007150A128A116A260A128A1183120313FF
:100E2E00071108007334613469342034733461342B
:100E3E00623461347234693473346834003400348B
:100E4E0000340034003400340034003400340034F4
:100E5E0000340034003400340034003400340034E4
:100E6E0000340034003400340034003400340034D4
:100E7E0000340034003400340034003400340034C4
:100E8E0000340034003400340034003400340034B4
:100E9E0000340034003400340034003400340034A4
:100EAE000034003400340034003400340034003494
:100EBE00003400340034003400340034831603133D
:100ECE008701880120308400A030F4000408F5006A
:100EDE004C30F6007408840083130008F700F40AFF
:100EEE007508840077088000F50AF60B712F0A1238
:100EFE008A1192260A128A11003083120313EC0013
:100F0E000030ED006D08803AFF0080307F02031D37
:100F1E00922F0C306C02031C952F962F982FBA2F00
:100F2E00BA2F831203136C08203E8400831300082B
:100F3E000A128A11BD260A128A1101308312031376
:100F4E00EC070318ED0A0030ED076D08803AFF003C
:100F5E0080307F02031DB52F0C306C02031CB82F9E
:100F6E00B92F982FBA2FC0300A128A11EB260A1207
:100F7E008A11003083120313EE000030EF006F0869
:100F8E00803AFF0080307F02031DCF2F0C306E029F
:100F9E00031CD22FD32FD52FFD2FFD2F18300A1261
:100FAE008A11EB260A128A11831203136E08203E51
:100FBE008400831300080A128A11BD260A128A11B0
:100FCE00013083120313EE070318EF0A0030EF0708
:100FDE006F08803AFF0080307F02031DF82F0C301F
:100FEE006E02031CFB2FFC2FD52FFD2F0A128A1128
:020FFE000028C9
:00000001FF
