:060000000A128A11522FC2
:100EA40083010A128A11C92FF200720883120313F4
:100EB40088000614861006150A128A11A1270A1240
:100EC4008A118312031306110A128A11A1270A1226
:100ED4008A110800F20072088312031388000610B6
:100EE400861006150A128A11A1270A128A11831282
:100EF400031306110A128A11A1270A128A11080083
:100F040002300A128A116C270A128A110C300A1252
:100F14008A116C270A128A1106300A128A116C2768
:100F24000A128A1101300A128A116C270A128A11D4
:100F340081300A128A116C270A128A1108000030C3
:100F4400F0000030F1007108803AFF008B307F021E
:100F5400031DAE2FB9307002031CB12FB22FB42F72
:100F6400C82FC82F0130F0070318F10A0030F10729
:100F74007108803AFF008B307F02031DC32FB93004
:100F84007002031CC62FC72FB42FC82F0800831666
:100F94000313860188018312031388018312031744
:100FA4008D0162308C00831603178C130C15553099
:100FB4008D00AA308D008C14DF2F831203130D1EB5
:100FC400E42FE52FDF2F831603170C118C108312E7
:100FD40003170C08F3007308F4000A128A1182271D
:100FE4000A128A11F52F74080A128A1156270A1256
:0C0FF4008A11F52FF52F0A128A1100282F
:00000001FF
