:060000000A128A11872F8D
:100F0E0083010A128A118B2F831603138801013075
:100F1E00850083120313880181309F00CE30831623
:100F2E0003139F009A2F0A128A11D0270A128A11D0
:100F3E0072088312031388009A2F9A2F0A128A11AD
:100F4E0000280030F0000030F1007108803AFF00F8
:100F5E0093307F02031DB52F88307002031CB82F0B
:100F6E00B92FBB2FCF2FCF2F0130F0070318F10A67
:100F7E000030F1077108803AFF0093307F02031DA5
:100F8E00CA2F88307002031CCD2FCE2FBB2FCF2F30
:100F9E0008008130831203139F00CE308316031393
:100FAE009F00831203131F15DC2F1F19DF2FE02F55
:100FBE00DC2FE12F1E08F400F5010830FF000310AE
:100FCE00F40DF50DFF0BE62F831603131E087407A1
:100FDE00F2000030031801307507F300FF2FFF2FCA
:100FEE000A128A11A8270A128A11831203131F11DB
:020FFE000800E9
:00000001FF
