:060000000A128A11A22F72
:100F440083010A128A11CE2F0030F0000030F10024
:100F54007108803AFF0083307F02031DB32FE9300C
:100F64007002031CB62FB72FB92FCD2FCD2F013010
:100F7400F0070318F10A0030F1077108803AFF0006
:100F840083307F02031DC82FE9307002031CCB2F6E
:100F9400CC2FB92FCD2F080083160313870183129A
:100FA400031387010F3097006430831603139200F4
:100FB4000030F2000030F300EF2F720883120313A5
:100FC40095000A128A11A6270A128A110130F20723
:100FD4000318F30A0030F307EF2F7308803A803CBC
:100FE400031DF82F72088316031312020318FB2F34
:0C0FF400FC2FDF2FFD2F0A128A110028AD
:00000001FF
