:060000000A128A114D2EC8
:100C64003F3406345B344F3466346D347D3407349A
:100C74007F346F347E088A007F0882003C260A1283
:100C84008A118000840A04087D0603190034FF0ACF
:100C94000319FE0A402E83133830FD000630FE008F
:100CA4003230FF002E3084000A128A1140260A12C4
:100CB4008A1183010A128A116A2F0030F000003071
:100CC400F1007108803AFF00BA307F02031D6C2ED8
:100CD40099307002031C6F2E702E722E862E862E73
:100CE4000130F0070318F10A0030F1077108803A67
:100CF400FF00BA307F02031D812E99307002031C5D
:100D0400842E852E722E862E0800031000300318C0
:100D14000130F600F31F8F2E902E992EF209F3095D
:100D2400F20A0319F30AF6010314F60D992EF11FC2
:100D34009C2E9D2EA32EF009F109F00A0319F10A45
:100D4400A32E710870040319A82EA92EDF2EF50115
:100D54000314F50DB92E01300310F00DF10DFF3E13
:100D6400031DAE2E0130F4007408F507B92EF11FEF
:100D7400BC2EBD2EAD2EBF2EBF2E71087302031DD7
:100D8400C52E70087202031CC82EC92ED02E7008FE
:100D9400F2027108031CF303F302D02E0130031096
:100DA400F10CF00CFF3E031DD12E0130F502031DA2
:100DB400DC2EDD2EBF2EDF2EDF2E7608031DE32E64
:100DC400E92EF209F309F20A0319F30AE92E73086A
:100DD400F101F1077208F001F007F02E080003108A
:100DE400003003180130F600F11FF92EFA2E032FFC
:100DF400F009F109F00A0319F10AF6010314F60DDA
:100E0400032FF31F062F072F102FF209F309F20AFD
:100E14000319F30A0130F4007408F6060030F700F1
:100E24000030F800710870040319192F1A2F582F75
:100E3400F5010314F50D2A2F01300310F00DF10D07
:100E4400FF3E031D1F2F0130F4007408F5072A2FFD
:100E5400F11F2D2F2E2F1E2F302F302F0130031076
:100E6400F70DF80DFF3E031D312F71087302031DAA
:100E74003D2F70087202031C402F412F492F700828
:100E8400F2027108031CF303F3027714492F0130B3
:100E94000310F10CF00CFF3E031D4A2F0130F50244
:100EA400031D552F562F302F582F582F7608031D0A
:100EB4005C2F622FF709F809F70A0319F80A622F61
:100EC4007808F101F1077708F001F007692F0800AD
:100ED4008316031386018801203084002E30F90024
:100EE4000408FA000A30FB00790884008313000820
:100EF400FC00F90A7A0884007C088000FA0AFB0BDB
:100F0400762F842F003083120313AC000030AD0021
:100F14002D08803AFF0080307F02031D932F643038
:100F24002C02031C962F972F992F842F842F0A307D
:100F3400F0000030F100831203132D08F301F307CE
:100F44002C08F201F2070A128A1187260A128A1162
:100F5400710883120313AB01AB077008AA01AA0737
:100F6400081488102A08203E840083130008860091
:100F74000A128A115F260A128A110A30F000003020
:100F8400F100831203132D08F301F3072C08F20177
:100F9400F2070A128A11F1260A128A1171088312C1
:100FA4000313AB01AB077008AA01AA070810881441
:100FB4002A08203E84008313000886000A128A113E
:100FC4005F260A128A11013083120313AC07031837
:100FD400AD0A0030AD072D08803AFF0080307F0253
:100FE400031DF62F64302C02031CF92FFA2F992FBE
:0C0FF400842F842F842F0A128A110028F9
:00000001FF
