:060000000A128A11612FB3
:100EC20083010A128A118D2F0030F0000030F100E8
:100ED2007108803AFF008B307F02031D722FB830F9
:100EE2007002031C752F762F782F8C2F8C2F0130D8
:100EF200F0070318F10A0030F1077108803AFF0089
:100F02008B307F02031D872FB8307002031C8A2F9B
:100F12008B2F782F8C2F0800831603138801013042
:100F22008600870183120313880187010030A00025
:100F32000030A1000030A2000030A3000030A40065
:100F42000030A5000030A6000030A700A82F8312B1
:100F52000313081403100619031400300318013098
:100F6200F200F3017208AA007308AB000130AA076D
:100F72000318AB0A0030AB072A18C02FC42F831204
:100F820003130616C72F8312031306120A128A11BD
:100F920065270A128A11A82F831203132908AB01AD
:100FA200AB072808AA01AA072A09F2002B09F300B5
:100FB200F20A0319F30A28087207A800290803187D
:100FC200290A7307A9000130AA070318AB0A0030E7
:100FD200AB072A18ED2FF12F831203130615F42FF6
:100FE200831203130611A82FA82F8814A82FA82F45
:0E0FF200A82FA82FA82FA82F0A128A110028B6
:00000001FF
