:060000000A128A11BE2F56
:100F7C0083010A128A11C22F803083160313870053
:100F8C008601831203138601903098002430831657
:100F9C000313980081309900831203131A08F00090
:100FAC00F1017008F2007108F300E72F8614F82F96
:100FBC000615F82F8615F82F861006118611F82FB6
:100FCC00F82F7308003A0319EC2FE22F7208013A3C
:100FDC000319DC2F033A0319DE2F013A0319E02F12
:100FEC00E22FF82F8C1EFB2FFC2FF82F8C120A12DD
:040FFC008A1100282E
:00000001FF
