:060000000A128A11B72F5D
:100F6E0083010A128A11BB2F8316031388010130E5
:100F7E0085008312031388018316031381168312CF
:100F8E0003138101CA2F83120313010888000A126A
:100F9E008A11D8270A128A11CA2FCA2F0A128A1149
:100FAE0000280030F0000030F1007108803AFF0098
:100FBE0097307F02031DE52F71307002031CE82F5E
:100FCE00E92FEB2FFF2FFF2F0130F0070318F10A47
:100FDE000030F1077108803AFF0097307F02031D41
:100FEE00FA2F71307002031CFD2FFE2FEB2FFF2FF7
:020FFE000800E9
:00000001FF
